:100000000C945D000C947A000C947A000C947A00A5
:100010000C947A000C94B4160C947A000C947A0028
:100020000C947A000C947A000C9494000C947A004E
:100030000C947A000C947A000C947A000C947A0058
:100040000C947A000C947A000C947A000C947A0048
:100050000C947A00F704FA04FD0400050305060574
:1000600009050C050F051205150518051C052005C9
:10007000240528052C053005340538053C054005C8
:1000800044059D059D059D059D059D059D059D05B9
:1000900048054C055005540558055C056005640588
:1000A00068056C057005740578057C058005840578
:1000B00088058C0590059405980511241FBECFE591
:1000C000D8E0DEBFCDBF12E0A0E6B0E0EAE0F7E3A3
:1000D00002C005900D92A631B107D9F716E0A6E14E
:1000E000B2E001C01D92A739B107E1F70E942117C4
:1000F0000C94831B0C9400008FEF8FB9779BFECF7D
:100100008FB1089587B3806B87BB80EF88BB8DB1BB
:1001100080658DB9709A88E083BF82E089BF81EAEB
:100120008FBD81E08EBD08951F920F920FB60F9282
:1001300011242F933F934F935F938F939F93EF934C
:10014000FF9330911602332309F08FC0809164062B
:10015000803109F04AC080916306409119025091A4
:100160001A0280FF27C080914D02F82FFF0FE0E0B8
:10017000E40FF51FEC59FD4F8081805880931802E1
:10018000CA01039690931A028093190220914D029E
:10019000F22FFF0FE0E0E80FF91FED59FD4F8081CE
:1001A0008058809317024C5F5F4F50931A02409320
:1001B00019025BC0CA01019690931A02809319023A
:1001C00020914D02F22FFF0FE0E0E80FF91FED59EB
:1001D000FD4F2081205820931802019690931A0217
:1001E000809319022093170240C0809163064091CA
:1001F000190250911A0280FD15C080914D02F82F0E
:10020000FF0FE0E0E40FF51FED59FD4F8081809373
:1002100018024F5F5F4F50931A0240931902809368
:10022000170223C080914D02F82FFF0FE0E0E40F8A
:10023000F51FED59FD4F808180931802CA01019688
:1002400090931A028093190220914D02F22FFF0F12
:10025000E0E0E80FF91FED59FD4F208120931702D0
:10026000019690931A028093190280918A0187FD6A
:1002700020C080918A013F5F309316023150232FB6
:1002800030E0992787FD909582179307BCF4109270
:10029000160220918B01332727FD3095809119029A
:1002A00090911A02820F931F90931A028093190261
:1002B00005C01092160284E080938B0120911802F1
:1002C000822F90E09BBD8ABD8091170290E099BD7E
:1002D00088BD8091190290911A028050924060F07E
:1002E00010921A021092190291E09093620280918A
:1002F0004D02892780934D028091600290916102A6
:100300000196909361028093600220933602FF91E0
:10031000EF919F918F915F914F913F912F910F900E
:100320000FBE0F901F901895CF92DF92EF92FF9221
:100330000F931F93DF93CF93CDB7DEB728970FB6F8
:10034000F894DEBF0FBECDBF0E94660DC82E882375
:1003500009F073C183E692E06CE070E04EE452E095
:100360000E94CD0D882331F081E0E82EF12C012D83
:10037000112DE0C080914E0290914F020C9709F030
:100380006DC180916B0290916C02A0916D02B09151
:100390006E0287559144A645B54409F05FC183E6D6
:1003A00092E068E070E04EE452E00E94CD0D809152
:1003B0004E0290914F02089709F050C1E0906702F9
:1003C000F09068020091690210916A0280916302C4
:1003D00090916402A0916502B09166028C3429E488
:1003E000920723E5A20724E5B20709F48BC08D34F8
:1003F00029E4920723E5A20724E5B20738F48656DC
:100400009D46A447B04209F029C110C0843621E6B8
:10041000920724E7A20721E6B20709F484C08656B2
:100420009146A346B44709F019C16CC0D801C70171
:100430004097A109B10985359105A105B10508F0DD
:100440000DC183E692E0B7014EE452E00E94CD0D6B
:1004500080914E0290914F02A0E0B0E08E159F0572
:10046000A007B10709F0FAC080916302813009F05A
:10047000F5C090916502892F8150823008F0EEC05E
:1004800020E0923009F421E0809163068E7F822B78
:100490008093630680917102883019F0803109F0F1
:1004A000DDC080936406809163068D7F8093630630
:1004B000809167029091680290936606809365062A
:1004C0007C0100E010E060E874E88EE190E0A801B3
:1004D00097010E949018215030402F3F310581F044
:1004E00078F060E970ED83E090E0A80197010E9448
:1004F000901821503040809163068260809363069B
:100500002CBF4DCF80917F0690918006A0918106EF
:10051000B0918206E80EF91E0A1F1B1FC801B70121
:100520000E94EE093CCF8FEFE816F104010511059A
:1005300009F010F4C70183C060E070E080E090E053
:100540000E94EE0983E692E060E072E04EE452E041
:100550000E94CD0D83E694E060E072E04EE452E04C
:100560000E94CD0D8091630681FD03C083B7826038
:1005700002C083B7836083BF81B3806381BBDE0128
:100580001196ECE8F1E088E001900D928150E1F7DE
:10059000DD24D3947E010894E11CF11C8091620259
:1005A0008823E1F380914D028D25182F110F00E073
:1005B000C8018D599D4F60E072E04EE452E00E9408
:1005C000CD0D80914E0290914F0280509240E8F004
:1005D0008091360261E20E948418F701E80FF11D54
:1005E0008081809585BB209160023091610280916D
:1005F0006506909166068217930720F410926102B7
:100600001092600210926202C9CF81B38F7C81BBCD
:100610008091630681FD03C083B78D7F02C083B7DD
:100620008C7F83BF8FEF85BB88E893E120E931E0C1
:10063000F9013197F1F70197D9F78C2D90E02896C1
:100640000FB6F894DEBF0FBECDBFCF91DF911F91E3
:100650000F91FF90EF90DF90CF900895EE24FF244C
:10066000870168CFDF93CF93CDB7DEB7CA52D140B1
:100670000FB6F894DEBF0FBECDBFDE011196E0E6E7
:10068000F0E026E001900D922150E1F7DE0117968F
:10069000E6E6F0E026E001900D922150E1F7DE0160
:1006A0001D96ECE6F0E026E001900D922150E1F776
:1006B000DE015396E2E7F0E026E001900D92215032
:1006C000E1F7DE015996E8E7F0E026E001900D92AF
:1006D0002150E1F7DE015F96EEE7F0E026E00190C1
:1006E0000D922150E1F7DE019596E4E8F0E026E076
:1006F00001900D922150E1F7DE019B96EAE8F0E0CF
:1007000026E001900D922150E1F7DE01D196E0E95B
:10071000F0E026E001900D922150E1F7DE01D7963E
:10072000E6E9F0E026E001900D922150E1F7DE01CC
:10073000DD96ECE9F0E027E001900D922150E1F721
:10074000DE01AC5BBF4FE3EAF0E027E001900D92E1
:100750002150E1F7DE01A55BBF4FEAEAF0E027E0B8
:1007600001900D922150E1F7DE01AE5ABF4FE1EB4F
:10077000F0E027E001900D922150E1F7DE01A75A49
:10078000BF4FE8EBF0E027E001900D922150E1F738
:10079000DE01A05ABF4FEFEBF0E027E001900D9291
:1007A0002150E1F7DE01A959BF4FE6ECF0E027E068
:1007B00001900D922150E1F7DE01A259BF4FEDECFF
:1007C000F0E027E001900D922150E1F7DE01AB58F7
:1007D000BF4FE4EDF0E027E001900D922150E1F7EA
:1007E000DE01A458BF4FEBEDF0E027E001900D9241
:1007F0002150E1F7DE01AD57BF4FE2EEF0E027E018
:1008000001900D922150E1F7DE01A657BF4FE9EEAE
:10081000F0E027E001900D922150E1F7DE01AF56A4
:10082000BF4FE0EFF0E027E001900D922150E1F79B
:10083000DE01A856BF4FE7EFF0E027E001900D92F0
:100840002150E1F7DE01A156BF4FEEEFF0E027E0C7
:1008500001900D922150E1F7DE01AA55BF4FE5E06E
:10086000F1E027E001900D922150E1F7DE01A35560
:10087000BF4FECE0F1E027E001900D922150E1F74D
:10088000DE01AC54BF4FE3E1F1E027E001900D92AF
:100890002150E1F7DE01A554BF4FEAE1F1E027E086
:1008A00001900D922150E1F7DE01AE53BF4FE1E21E
:1008B000F1E027E001900D922150E1F7DE01A7530E
:1008C000BF4FE8E2F1E027E001900D922150E1F7FF
:1008D000DE01A053BF4FEFE2F1E027E001900D925F
:1008E0002150E1F7DE01A952BF4FE6E3F1E027E036
:1008F00001900D922150E1F7DE01A252BF4FEDE3CE
:10090000F1E027E001900D922150E1F7DE01AB51BB
:10091000BF4FE4E4F1E027E001900D922150E1F7B0
:10092000DE01A451BF4FEBE4F1E027E001900D920E
:100930002150E1F7DE01AD50BF4FE2E5F1E027E0E5
:1009400001900D922150E1F7DE01A650BF4FE9E57D
:10095000F1E027E001900D922150E1F7DE01AF5F59
:10096000BE4FE0E6F1E027E001900D922150E1F763
:10097000DE01A85FBE4FE7E6F1E027E001900D92AF
:100980002150E1F7DE01A15FBE4FEEE6F1E027E086
:1009900001900D922150E1F7DE01AA5EBE4FE5E71E
:1009A000F1E027E001900D922150E1F7DE01A35E16
:1009B000BE4FECE7F1E027E001900D922150E1F706
:1009C000DE01AC5DBE4FE3E8F1E027E001900D925F
:1009D0002150E1F7FC018333910508F0AEC0E65DDC
:1009E000FF4FEE0FFF1F0590F491E02D0994CE010B
:1009F0000196A1C0CE0107969EC0CE010D969BC068
:100A0000CE01439698C0CE01499695C0CE014F962F
:100A100092C0CE0185968FC0CE018B968CC0CE0140
:100A2000C19689C0CE01C79686C0CE01CD9683C03F
:100A3000CE018C5B9F4F7FC0CE01855B9F4F7BC0FB
:100A4000CE018E5A9F4F77C0CE01875A9F4F73C0F9
:100A5000CE01805A9F4F6FC0CE0189599F4F6BC006
:100A6000CE0182599F4F67C0CE018B589F4F63C004
:100A7000CE0184589F4F5FC0CE018D579F4F5BC002
:100A8000CE0186579F4F57C0CE018F569F4F53C000
:100A9000CE0188569F4F4FC0CE0181569F4F4BC00D
:100AA000CE018A559F4F47C0CE0183559F4F43C00B
:100AB000CE018C549F4F3FC0CE0185549F4F3BC009
:100AC000CE018E539F4F37C0CE0187539F4F33C007
:100AD000CE0180539F4F2FC0CE0189529F4F2BC014
:100AE000CE0182529F4F27C0CE018B519F4F23C012
:100AF000CE0184519F4F1FC0CE018D509F4F1BC010
:100B0000CE0186509F4F17C0CE018F5F9E4F13C0FE
:100B1000CE01885F9E4F0FC0CE01815F9E4F0BC0FC
:100B2000CE018A5E9E4F07C0CE01835E9E4F03C0FA
:100B3000CE018C5D9E4F0E949401C65DDE4F0FB6C4
:100B4000F894DEBF0FBECDBFCF91DF9108951F9304
:100B5000182F87E696E00E94641088EB9BE020E95E
:100B600031E0F9013197F1F70197D9F7812F90E042
:100B70000E9432030E9494011F910895DF92EF9228
:100B8000FF920F931F93D82E7A018B0187FF0CC021
:100B900087E740E050E060E070E00E94BE058230F0
:100BA00008F040C08FE7D822C49A8FEF8FB9779BA7
:100BB000FECF8FB1C4988FEF8FB9779BFECF8FB1E7
:100BC000DFB8779BFECF812F9927AA27BB278FB944
:100BD000779BFECFC801AA27BB278FB9779BFECF93
:100BE000BB27A12F902F8F2D8FB9779BFECFEFB80A
:100BF000779BFECF80E4D81611F485E906C088E41F
:100C0000D81611F487E801C081E08FB9779BFECF39
:100C10009AE02FEF2FB9779BFECF8FB187FF02C0ED
:100C20009150C1F71F910F91FF90EF90DF900895C1
:100C3000EF92FF920F931F93CF93DF937C01E90113
:100C400080911D0283FD07C039E0440F551F661FC8
:100C5000771F3A95D1F781E50E94BE05882309F0F8
:100C60003AC080E395E73FEF3FB9779BFECF2FB1C6
:100C70002F3F19F40197C1F72EC02E3F61F52227AF
:100C800033272C1B3D0B2E5F3D4F201B310B209734
:100C900039F08FEF8FB9779BFECF9FB12197D1F7B6
:100CA000E114F10471F09FEF9FB9779BFECF8FB1F4
:100CB000F70180830150104021F00894E11CF11CE1
:100CC000F3CF8FEF8FB9779BFECF9FB1215030408C
:100CD000C9F790E001C091E0C49A8FEF8FB9779B7C
:100CE000FECF8FB1892FDF91CF911F910F91FF9090
:100CF000EF900895FC010097F9F020911B023091CC
:100D00001C0209C080818FB9779BFECF319641507C
:100D10005040215030404115510529F430931C02B8
:100D200020931B0207C02115310561F710921C02A8
:100D300010921B0290E054C04115510561057105E8
:100D400009F180911D0283FD07C0E9E0440F551FA2
:100D5000661F771FEA95D1F788E50E94BE058823B4
:100D600011F091E03DC08FEF8FB9779BFECF8EEFF2
:100D70008FB9779BFECF80E092E090931C02809326
:100D80001B02D8CF80911B0290911C02029602C0D8
:100D90001FB801970097E1F7779BFECF8FEF8FB9D0
:100DA000779BFECF8FB18F71853099F428EE3DEFA0
:100DB0009FEF02C0215030409FB9779BFECF8FB18B
:100DC0008F3F21F021153105A9F703C090E0232BB7
:100DD00009F491E0C49A8FEF8FB9779BFECF8FB162
:100DE000892F0895CF92DF92EF92FF920F931F9376
:100DF000DF93CF9300D000D0CDB7DEB7C49908C041
:100E000080E090E040E050E060E070E00E947A0610
:100E100084E69FEF9FB9779BFECF2FB18150D1F72A
:100E200080E440E050E060E070E00E94BE05813068
:100E300009F06CC088E44AEA51E060E070E00E948A
:100E4000BE05813009F040C06E010894C11CD11C60
:100E500076019FEF9E012B5F3F4F9FB9779BFECF9F
:100E60008FB1F70181937F01E217F307B1F78B810F
:100E7000813009F04BC08C818A3A09F047C000EEFE
:100E80001EE204C00150104009F440C089EE40E069
:100E900050E060E070E40E94BE05882399F750C0DE
:100EA0009FEF9FB9779BFECF8FB1F60181936F01C2
:100EB000EE15FF05B1F7898186FD03C004E0F02E31
:100EC00026C01CE0F12E23C089EE40E050E060E037
:100ED00070E00E94BE05823028F0B1E4EB2EFF24C2
:100EE000F39404C0A9EEEA2EF2E0FF2E08EA11E620
:100EF00003C00150104051F08E2D40E050E060E002
:100F000070E00E94BE058823A1F725C0FF24F0925F
:100F10001D02C49A8FEF8FB9779BFECF8FB180E00F
:100F2000FF2009F481E00F900F900F900F90CF9168
:100F3000DF911F910F91FF90EF90DF90CF90089578
:100F40008AE740E050E060E070E00E94BE05882340
:100F500009F4A6CFDBCF80E540E052E060E070E02E
:100F60000E94BE05882391F6D2CF1F9380E090E0C7
:100F700040E050E060E070E00E947A0610E00BC0B4
:100F800080E090E040E050E060E070E00E947A068F
:100F90001F5F143611F0882399F71F910895CF929F
:100FA000DF92EF92FF920F931F93CF93DF936C0129
:100FB000C0911E02D0911F02FC0111821082248177
:100FC000358146815781213031054105510509F4AC
:100FD0005BC088859985AA85BB85281739074A078C
:100FE0005B0708F051C0211531054105510539F461
:100FF0008881833021F4288939894A895B89F601FF
:1010000020873187428753872115310541055105D6
:1010100081F18EEFE82E8FEFF82E8FEF082F8FEFF4
:10102000182FE20EF31E041F151F88859985AA85C7
:10103000BB850297A109B109E816F9060A071B0743
:1010400028F020E030E040E050E017C0298130E097
:1010500040E050E0C801B7010E9465189B01AC0157
:101060008C899D89AE89BF89280F391F4A1F5B1F54
:1010700004C0288939894A895B89F6012487358724
:101080004687578780E001C081E0DF91CF911F91B3
:101090000F91FF90EF90DF90CF9008956F927F9225
:1010A0008F929F92AF92BF92CF92DF92EF92FF9278
:1010B0000F931F93DF93CF9300D000D0CDB7DEB74F
:1010C0004B015C0160901E0270901F0282E0881646
:1010D0009104A104B10408F4B4C0F30180859185A2
:1010E000A285B38588169906AA06BB0608F0A9C092
:1010F0008081823009F45FC0833009F47BC0813085
:1011000009F09FC0C40196958795880D991D9C0193
:101110003170892F992786956C01EE24FF24F30105
:101120004485558566857785CE010196F1E02F3F90
:101130003F0749F0C40ED51EE61EF71EB701A601F3
:1011400002E010E01EC04C0D5D1D6E1D7F1D2FEFD7
:1011500031E001E010E00E941806882309F071C018
:10116000F30144855585668577854F5F5F4F6F4FE7
:101170007F4F4C0D5D1D6E1D7F1DCE01029620E040
:1011800030E00E941806882309F05BC069817A81EB
:10119000C40181709070892B39F0A4E07695679531
:1011A000AA95E1F79B0123C09B0140E050E03F700E
:1011B000407050704AC077276B2D5A2D492DF3018E
:1011C00084859585A685B785480F591F6A1F7B1FA3
:1011D00094013070220F331FCE01019602E010E01F
:1011E0000E941806882369F589819A819C0140E054
:1011F00050E02BC0B501A40127E07695679557957F
:1012000047952A95D1F7F30184859585A685B785FD
:10121000480F591F6A1F7B1F94012F773070220FD0
:10122000331F220F331FCE01019604E010E00E940D
:101230001806882331F429813A814B815C815F70E3
:1012400004C021E030E040E050E0B901CA010F9055
:101250000F900F900F90CF91DF911F910F91FF9002
:10126000EF90DF90CF90BF90AF909F908F907F9046
:101270006F900895AF92BF92CF92DF92EF92FF925C
:101280000F931F93CF93DF935C01C0911E02D09107
:101290001F02FC01C080D1800894C11CD11CC11464
:1012A000D10409F48FC024853585468557852115DD
:1012B00031054105510509F485C0C6018F70907054
:1012C000892B09F07AC02F5F3F4F4F4F5F4F248724
:1012D00035874687578740855185628573854115D7
:1012E00051056105710539F48C819D81C816D906B7
:1012F00008F463C067C0898190E001979601E4E03B
:1013000036952795EA95E1F782239323892B09F0F7
:1013100054C0CB01BA010E944E089B01AC0162305F
:1013200071058105910510F481E04DC0888599858E
:10133000AA85BB85281739074A075B0708F042C012
:10134000F5012087318742875387C0911E02D091D3
:101350001F028EEFE82E8FEFF82E8FEF082F8FEF02
:10136000182FE20EF31E041F151F88859985AA8584
:10137000BB850297A109B109E816F9060A071B0700
:1013800028F020E030E040E050E012C0298130E059
:1013900040E050E0C801B7010E9465189B01AC0114
:1013A0008C899D89AE89BF89280F391F4A1F5B1F11
:1013B000F5012487358746875787F501D182C0829A
:1013C00080E001C083E0DF91CF911F910F91FF90EA
:1013D000EF90DF90CF90BF90AF9008952F923F9203
:1013E0004F925F926F927F928F929F92AF92BF9235
:1013F000CF92DF92EF92FF920F931F93CF93DF93E1
:10140000E82FC0911E02D0911F02209711F486E0B0
:101410000DC18A8180FD02C085E008C1AC8CBD8C05
:10142000CE8CDF8C4E2F592FCB01DA013C014D01C0
:10143000A614B704C804D90410F435014601288D58
:10144000398D4A8D5B8D188E198E1A8E1B8E611404
:1014500071048104910409F4E8C08981A82EBB2499
:10146000CC24DD2499E0AA0CBB1CCC1CDD1C9A9575
:10147000D1F72115310541055105B1F119012A01B5
:1014800008942108310841085108C401B301615092
:10149000704080409040A60195010E94901879010B
:1014A0008A01C201B101A60195010E949018E216BD
:1014B000F30604071507C0F088279927DC018A196D
:1014C0009B09AC09BD0982219321A421B521888FF4
:1014D000998FAA8FBB8F681A790A8A0A9B0A2CA156
:1014E0003DA14EA15FA133C028A139A14AA15BA1B2
:1014F0002CA33DA34EA35FA32AC0CA01B9010E9439
:101500004E089B01AC01623071058105910508F41C
:1015100089C088859985AA85BB85281739074A0718
:101520005B0708F07FC02CA33DA34EA35FA3888D6B
:10153000998DAA8DBB8D8A0D9B1DAC1DBD1D888FFD
:10154000998FAA8FBB8F6A187B088C089D08A614F8
:10155000B704C804D90488F2888D998DAA8DBB8DF3
:10156000860D971DA81DB91D888F998FAA8FBB8FD7
:1015700000911E0210911F028EEFA82E8FEFB82E41
:101580008FEFC82E8FEFD82EA20EB31EC41ED51E0D
:10159000F80180859185A285B3850297A109B109DB
:1015A000A816B906CA06DB06E8F5218130E040E05E
:1015B00050E0C601B5010E9465189B01AC01F8011D
:1015C00084899589A689B789280F391F4A1F5B1F0F
:1015D000211531054105510529F1D401C30119E057
:1015E000B695A795979587951A95D1F7982F8B83E0
:1015F000FFEFEF2EF1E0FF2E012D112D6E207F2049
:1016000080229122611471048104910471F0280FE9
:10161000311D411D511D28A739A74AA75BA79F5F10
:101620009B8303C01A8281E001C080E0DF91CF91EB
:101630001F910F91FF90EF90DF90CF90BF90AF90F0
:101640009F908F907F906F905F904F903F902F90E2
:101650000895AF92BF92CF92DF92EF92FF920F93D5
:101660001F93DF93CF93CDB7DEB7AC970FB6F89447
:10167000DEBF0FBECDBF7C015B01E0911E02F09189
:101680001F02309711F486E0C6C0CE010D969783F5
:101690008683CE010196D70113969C938E93129761
:1016A0006115710521F4C7010E94CF07B4C0C6803F
:1016B000D78083E026C0F701208131812F70307000
:1016C000E5E0220F331FEA95E1F7C60100E210E0E2
:1016D0000E941806882311F081E01FC0D6019C915A
:1016E000992309F4A9C01B968C91953E29F09E324E
:1016F00019F08F7383FF1DC0C7010E943A09882328
:1017000061F4F70144855585668577854115510556
:101710006105710581F6882361F0D7011C961D9241
:101720001D921D921C921F97833019F0882309F097
:1017300072C09501275F3F4FF70184859585A68587
:10174000B7850097A105B10509F456C0E0911E02C6
:10175000F0911F024681578180E090E0FA01E80F86
:10176000F91FE081E03251F0E53009F4E5EED901EE
:10177000ED939D0101968830910581F7FA018085EE
:10178000803211F4F90110C0F9018EE28193DA017F
:101790002C5F3F4F18968C911897803229F08193D7
:1017A0001196E217F307B1F7DA011B968C91D50178
:1017B00018968C93DA015C960D911D912D913C91B8
:1017C0005F97D5010D931D932D933C931397DA01E9
:1017D00058968D919C915997D50115969C938E930F
:1017E0001497DA0156968D919C915797D5011796CB
:1017F0009C938E9316979F01F9011082C7010E9456
:101800003A09833041F4D7011C961D921D921D9216
:101810001C921F9780E0AC960FB6F894DEBF0FBE07
:10182000CDBFCF91DF911F910F91FF90EF90DF908F
:10183000CF90BF90AF90089583E06FCF8F929F922B
:10184000AF92BF92CF92DF92EF92FF920F931F93CE
:10185000CF93DF93EC017B0103C00894E11CF11CE2
:10186000F70180818032C9F38F3219F40894E11CAA
:10187000F11C1C821D821E821F82F7018081813231
:1018800068F4CE010E94CF07B82EE0911E02F091BD
:101890001F020680F781E02D1082ABC080E2882E07
:1018A00099249394AA81BB81FD018BE090E001C053
:1018B000819201972FEF8F3F9207D1F720E0AA2462
:1018C00038E002C028E03BE0F701EA0DF11D90810D
:1018D000A3949132B0F09F32A1F09E3211F0231701
:1018E00028F0383071F49E3269F30BC0892F81568D
:1018F0008A3108F49052FD01E20FF11D90832F5FB1
:10190000E3CF1B961C921B97913210F41B969C926E
:10191000CE010E94CF07B82E882309F03FC0E09186
:101920001E02F0911F02C680D7804C855D856E85B2
:101930007F85288139812F70307005E0220F331F99
:101940000A95E1F7C60100E210E00E94180688231C
:1019500011F081E022C0F6018081882309F457C08C
:10196000838583FD15C0D6018A819B819C01F90185
:101970002BE030E0215030408FEF2F3F380709F443
:1019800049C09C918081981719F411963196F2CF35
:10199000CE010E943A09882341F2B82EE3E0BE1638
:1019A00041F5EA81FB818385882309F122C0E0911A
:1019B0001E02F0911F020680F781E02D838584FFCF
:1019C00016C0EA0CF11C84899589A0E0B0E0DC0126
:1019D00099278827228D338D40E050E0822B932B6E
:1019E000A42BB52B8C839D83AE83BF835BCFA4E0F8
:1019F000BA2E8B2DDF91CF911F910F91FF90EF9019
:101A0000DF90CF90BF90AF909F908F900895F3E0BC
:101A1000BF2EC7CFEA81FB818385882341F2E9CFBE
:101A2000EF92FF920F931F93DF93CF93CDB7DEB763
:101A3000AC970FB6F894DEBF0FBECDBF8C01E0911E
:101A40001E02F0911F02309711F486E032C03DE093
:101A5000E32EF12CEC0EFD1EF782E682CE010196FC
:101A6000F80193838283C8010E941E0C8823F1F43D
:101A70008D858823C1F0888D84FF1AC0F701848981
:101A80009589A0E0B0E0DC0199278827228D338D6D
:101A900040E050E0822B932BA42BB52BF8018483DC
:101AA0009583A683B783C8010E94CF07833009F4CA
:101AB00084E0AC960FB6F894DEBF0FBECDBFCF91D9
:101AC000DF911F910F91FF90EF900895EF92FF9299
:101AD0000F931F93DF93CF93CDB7DEB7EC970FB67D
:101AE000F894DEBF0FBECDBFBC0100911E02109165
:101AF0001F020115110511F466E041C0F8011282C0
:101B00005DE1E52EF12CEC0EFD1EF782E682CE01A2
:101B10000196988B8F87CE010D960E941E0C682F20
:101B2000882369F58D8D882349F188A584FD26C019
:101B3000F70184899589A0E0B0E0DC019927882726
:101B4000228D338D40E050E0822B932BA42BB52BBC
:101B5000F80180A391A3A2A3B3A3F701848D958D6F
:101B6000A68DB78DF801848F958FA68FB78F108EB5
:101B7000118E128E138E81E0828301C063E0862F66
:101B8000EC960FB6F894DEBF0FBECDBFCF91DF91BC
:101B90001F910F91FF90EF9008954F925F926F9277
:101BA0007F928F929F92AF92BF92CF92DF92EF92ED
:101BB000FF920F931F93CF93DF933C016B014A0178
:101BC000C0911E02D0911F02FA011182108220974B
:101BD00011F486E0DAC08A8180FD02C085E0D5C0BC
:101BE0002C8D3D8D4E8D5F8D888D998DAA8DBB8DF1
:101BF000281B390B4A0B5B0BCB01A0E0B0E0281788
:101C000039074A075B0708F469015301412CF2E0E8
:101C10005F2EB3C0E88CF98C0A8D1B8DD801C701EB
:101C20009170A070B0700097A105B10509F06BC06C
:101C3000C801B701E9E09695879577956795EA958C
:101C4000D1F7298130E040E050E00E949018611502
:101C5000710581059105D9F4E114F104010511051F
:101C600029F468A179A18AA19BA106C06CA17DA1DC
:101C70008EA19FA10E944E086230710581059105D9
:101C800008F481C06CA37DA38EA39FA31B82009147
:101C90001E0210911F022CA13DA14EA15FA1225056
:101CA000304040405040F80180859185A285B38541
:101CB0000297A109B109281739074A075B0708F0FD
:101CC00062C0618170E080E090E00E9465189B0135
:101CD000AC01F80184899589A689B789280F391F35
:101CE0004A1F5B1F211531054105510509F44BC001
:101CF0008B81280F311D411D511D28A739A74AA7E7
:101D00005BA78F5F8B83088D198D2A8D3B8DC80152
:101D10009170A201481B590B76014C155D0508F422
:101D20007A016114710419F480E090E001C0C501EA
:101D300048A559A56AA57BA59801317087010E9425
:101D40001806882301F5C701A0E0B0E0288D398D81
:101D50004A8D5B8D280F391F4A1F5B1F288F398FD3
:101D60004A8F5B8FAE0CBF1CCE18DF08F401808158
:101D700091818E0D9F1D91838083C114D10409F040
:101D800049CF80E002C01A8281E0DF91CF911F919C
:101D90000F91FF90EF90DF90CF90BF90AF909F900A
:101DA0008F907F906F905F904F900895AF92BF9209
:101DB000CF92DF92EF92FF920F931F93CF93DF9317
:101DC000B82EA92E6A017B012EEF31E002E010E06F
:101DD0000E941806882311F023E033C0CB2DDA2DA2
:101DE0008881998185559A4A11F022E02AC08B2D6D
:101DF0009A2DB701A60126E330E002E010E00E9430
:101E00001806882339F4888199818654914411F405
:101E100020E017C08B2D9A2DB701A60122E530E0F6
:101E200002E010E00E941806882311F021E009C0AA
:101E300020E0888199818654914409F421E081E071
:101E40002827822FDF91CF911F910F91FF90EF9064
:101E5000DF90CF90BF90AF9008954F925F926F92B6
:101E60007F928F929F92AF92BF92CF92DF92EF922A
:101E7000FF920F931F93CF93DF93FC015B013A0115
:101E8000C0911E02D0911F02DA011D921C92209770
:101E900011F486E008C18A8190E080FD02C085E0EF
:101EA00002C1807490706115710589F4892B59F015
:101EB00080E090E040E050E060E070E00E947A0650
:101EC000882309F0EEC08A818F7B8A83E8C0892B42
:101ED00051F4888D998DAA8DBB8D80709E7F888FDF
:101EE000998FAA8FBB8F2C8D3D8D4E8D5F8D888DE8
:101EF000998DAA8DBB8D281B390B4A0B5B0BC50135
:101F0000A0E0B0E0281739074A075B0708F4590139
:101F10004F01412CB2E05B2EBEC0E88CF98C0A8DDB
:101F20001B8DC7019170892B09F077C0C801B701DB
:101F3000A9E09695879577956795AA95D1F7298118
:101F400030E040E050E00E94901861157105810575
:101F50009105D9F4E114F1040105110529F468A1F2
:101F600079A18AA19BA106C06CA17DA18EA19FA190
:101F70000E944E08623071058105910508F491C0F8
:101F80006CA37DA38EA39FA31B8200911E021091C0
:101F90001F022CA13DA14EA15FA122503040404024
:101FA0005040F80180859185A285B3850297A109EB
:101FB000B109281739074A075B0708F072C0618129
:101FC00070E080E090E00E9465189B01AC01F80190
:101FD00084899589A689B789280F391F4A1F5B1FF5
:101FE000211531054105510509F45BC08B81BA010A
:101FF000A901480F511D611D711D48A759A76AA766
:102000007BA78F5F8B8380E090E00E947A06882315
:1020100009F047C08A8180648A83888D998D917088
:102020009201281B390B65012A153B0508F469014B
:10203000760100E010E0C401B801A7010E947A0611
:10204000882379F5888D998DAA8DBB8D8E0D9F1D66
:10205000A01FB11F9C01888F998FAA8FBB8FD301BE
:102060008D919C9111978C0D9D1D8D939C9331703A
:10207000232B69F480E090E040E050E060E070E005
:102080000E947A06882369F48A818F7B8A838C0C6C
:102090009D1CAC18BD08A114B10409F03ECF80E02E
:1020A00002C01A8281E0DF91CF911F910F91FF90C2
:1020B000EF90DF90CF90BF90AF909F908F907F90E8
:1020C0006F905F904F9008956F927F928F929F9242
:1020D000AF92BF92CF92DF92EF92FF920F931F9336
:1020E000DF93CF93CDB7DEB7A4970FB6F894DEBFDA
:1020F0000FBECDBF5C0110921F0210921E0200970E
:1021000009F4EDC00E94F20680FF02C082E0ECC03C
:102110004E010894811C911CC40140E050E060E035
:1021200070E00E94D60E813021F0CC24DD247601AF
:102130001BC0C40140E050E060E070E02EEB31E0F5
:1021400000E110E00E941806882309F0CAC08D81C2
:10215000882309F4C8C0C984DA84EB84FC84C401F0
:10216000B701A6010E94D60E833009F4BAC08823B5
:1021700009F0B9C0CE010196B701A6012DE030E00B
:1021800004E210E00E941806882309F0AAC08A859C
:102190009B85BC0180E090E061157105810591058A
:1021A00021F4688D798D8A8D9B8D2C8130E040E003
:1021B00050E00E9465183B014C018A819B81A0E0A0
:1021C000B0E0C80ED91EEA1EFB1EF501C486D586F6
:1021D000E686F786898181832D813E81358324833C
:1021E0008F8198857C0100E010E0E114F104010585
:1021F000110521F4EC88FD880E891F898A819B8155
:10220000A0E0B0E0E81AF90A0A0B1B0BE618F70881
:102210000809190984E0369527958A95E1F7C901DF
:10222000A0E0B0E0E81AF90A0A0B1B0BF5012181C6
:1022300030E040E050E0C801B7010E9490182E5FE6
:102240003F4F4F4F5F4FF5012087318742875387BC
:10225000273FFFE03F07F0E04F07F0E05F0710F493
:1022600081E008C0275F3F4F4040504010F083E0BE
:1022700001C082E0F5018083833029F488A199A10F
:10228000AAA1BBA109C0F50184859585A685B7855E
:10229000860D971DA81DB91D808B918BA28BB38BCA
:1022A000F5018481958114E0969587951A95E1F75B
:1022B000A0E0B0E02485358546855785820F931FC1
:1022C000A41FB51F860D971DA81DB91D848B958B66
:1022D000A68BB78B1282B0921F02A0921E0280E0E2
:1022E00003C081E001C087E0A4960FB6F894DEBF7A
:1022F0000FBECDBFCF91DF911F910F91FF90EF9057
:10230000DF90CF90BF90AF909F908F907F906F9015
:1023100008959B01AC0164E0220F331F441F551F39
:102320006A95D1F760E074E284EF90E00E94901823
:10233000C901DA010197A109B109292F3A2F4B2FC1
:1023400055270196A11DB11D20BD815089B988E195
:102350008AB986E880BD08955F9BFECF8CB1089551
:102360005D9BFECF8CB90895FC0120E030E002C0F7
:102370002F5F3F4F80818D3021F0818131968A30EF
:10238000B9F72E5F3F4FC9010895CF92DF92FF92B8
:102390000F931F93DF93CF930F92CDB7DEB78C01CE
:1023A0006B015F9BFECF8CB18A30D9F719825F9B9E
:1023B000FECFFCB08AE0F81611F4A1E0A9830894DE
:1023C000C11CD11CF80180819181B6010E94D319F2
:1023D000FC01D8018D939C93EC0DFD1D3197F0828B
:1023E000B981B13021F7C6010F90CF91DF911F91D4
:1023F0000F91FF90DF90CF9008951F93CF93DF93BD
:102400000E94951380E065E00E948D1384E991E0BD
:102410000E943B1380E197E220E931E0F901319716
:10242000F1F70197D9F710E0C0E9D1E081E0612F21
:102430000E948D1384EF91E0FE013197F1F701972F
:10244000D9F78AE991E00E943B131F5F103171F7C1
:1024500080ED97E020E931E0F9013197F1F701973C
:10246000D9F7DF91CF911F9108950F931F93DF93B9
:10247000CF93CDB7DEB764970FB6F894DEBF0FBE2B
:10248000CDBF8C0180919C0190919D019A8389839D
:1024900080919E0190919F019C838B838091A001EC
:1024A0009091A1019E838D838091A2019091A301BF
:1024B00098878F838091A4019091A5019A8789873D
:1024C0008091A6019091A7019C878B878091A8019C
:1024D0009091A9019E878D878091AA019091AB016F
:1024E000988B8F878091AC019091AD019A8B898BED
:1024F0008091AE019091AF019C8B8B8B80E06FE05F
:102500000E948D130430110599F10530110584F4F2
:102510000130110521F1023011051CF4012BE1F00D
:102520003AC002301105F1F003301105A1F51DC0CC
:102530000730110531F1083011053CF40530110563
:10254000D1F00630110539F519C008301105E1F058
:102550000930110501F51BC0CE0101961AC0CE014C
:10256000039617C0CE01059614C0CE01079611C080
:10257000CE0109960EC0CE010B960BC0CE010D9672
:1025800008C0CE010F9605C0CE01419602C0CE0113
:1025900043960E943B1364960FB6F894DEBF0FBEBD
:1025A000CDBFCF91DF911F910F91089580FF02C0A1
:1025B000DB9A01C0DB9881FF02C0DC9A01C0DC9885
:1025C00082FF02C0DD9A01C0DD9883FF02C0DE9A5F
:1025D0000895DE98089589B390E023E09695879555
:1025E0002A95E1F78170CC998260CD998460CE996B
:1025F000886008951F93D698D598D498D398D99A7F
:10260000DA9A0E94EB12182F1295107FDA98DA9A54
:102610000E94EB12DA98812B1F910895D8980E949E
:10262000FA1208951F93182FD69AD59AD49AD39A4E
:10263000D998DA9A82958F700E94D612DA98DA9A2F
:10264000812F0E94D612DA980E940E1387FDFCCFCC
:102650001F910895D8980E9412130895D89A0E9445
:1026600012130895982F8058883008F49770892F96
:102670000E942E130895CF93DF93EC0102C00E94B5
:10268000321389918823D9F7DF91CF910895CF93A1
:10269000DF93EC0102C00E943213FE012196849167
:1026A0008823C9F7DF91CF9108951F93CF93DF93CC
:1026B000EB0190E0877090700896880F880F880F64
:1026C0000E942A1310E089910E942E131F5F183078
:1026D000D1F7DF91CF911F9108950F931F93CF935F
:1026E000DF938B0190E0877090700896880F880FB9
:1026F000880F0E942A13C0E0D0E0F801EC0FFD1F04
:10270000E4918E2F0E942E132196C830D105A9F78F
:10271000DF91CF911F910F910895813009F480E4EA
:102720006058860F0E942A13089581E00E942A13A0
:1027300008950F931F93D69AD59AD49AD39AD09A84
:10274000D29AD19AD89ADA9AD99A80E69AEE0197D3
:10275000F1F7DA98D898D998DA9A83E00E94D612DD
:10276000DA9880E190E40197F1F7DA9A83E00E9429
:10277000D612DA9800E911E0C8010197F1F7DA9A68
:1027800083E00E94D612DA98C8010197F1F7DA9A2D
:1027900082E00E94D612DA98C8010197F1F788E228
:1027A0000E942A1388E00E942A138CE00E942A13B8
:1027B00086E00E942A130E9495131F910F9108959D
:1027C0000F931F93CF93DF938B0190E087709070EE
:1027D0000896880F880F880F0E942A13C0E0D0E067
:1027E000C8018C0F9D1F0E94201B0E942E13219652
:1027F000C830D105A9F7DF91CF911F910F910895AE
:10280000CF93DF93EC0121960E94201B982F8150DB
:102810008E3F28F4892F0E943213CE01F3CFDF912F
:10282000CF910895DF93CF93CDB7DEB761970FB601
:10283000F894DEBF0FBECDBFAE014F5F5F4F20E10A
:1028400030E00E94EC1A0E943B1361960FB6F89498
:10285000DEBF0FBECDBFCF91DF910895DF93CF9341
:10286000CDB7DEB761970FB6F894DEBF0FBECDBF10
:10287000BE016F5F7F4F4AE050E00E94CB1A0E947A
:102880003B1361960FB6F894DEBF0FBECDBFCF915C
:10289000DF910895DF9880E197E220E931E0F901C6
:1028A0003197F1F70197D9F7DF9A0895CF93DF9326
:1028B00010922002C0E9D1E068C080ED97E0FE01EF
:1028C0003197F1F70197D9F7109222021092210265
:1028D00080E00E94351280912002882319F48CE058
:1028E00090E009C0813019F48DE090E004C082309E
:1028F00061F58EE090E00E94A70527C098992BC053
:1029000080E293E0FE013197F1F70197D9F79899AA
:1029100022C020912102309122022F5F3F4F30933D
:1029200022022093210280ED97E0FE013197F1F71A
:102930000197D9F72A30310524F010922202109223
:102940002102809121020E943512809121029091F2
:1029500022020E94A7059999D1CF90912002A92F18
:10296000B0E08091210220912202FD01EE0FFF1FB5
:10297000E85DFD4F80832183805D80932302AC5D01
:10298000BD4F8C939F5F90932002809120028330F3
:1029900008F493CF83E190E00E94A70540912802BC
:1029A000509129024115510509F03EC020912A029B
:1029B00030912B022115310559F480912C02909110
:1029C0002D02049799F492E39093300283E300C1BF
:1029D0002130310559F480912C0290912D020197FC
:1029E00019F598E2909330028EE2F2C02230310560
:1029F000D9F480912C0290912D02009729F493E252
:102A00009093300284E2E4C08530910529F490E38C
:102A10009093300281E3DCC0089709F076C090E221
:102A2000909330028FE2D4C04130510509F06DC05F
:102A300020912A0230912B022130310559F48091E6
:102A40002C0290912D02029799F494E39093300216
:102A500085E3BEC02230310559F480912C0290915B
:102A60002D02029799F490E29093300281E2B0C077
:102A70002330310559F480912C0290912D02039757
:102A8000D9F49DE3909330028EE3A2C02530310546
:102A900099F480912C0290912D028430910529F4B3
:102AA0009EE19093300282E293C0089781F49AE20B
:102AB000909330028BE28CC02730310541F4809135
:102AC0002C0290912D02029701F599E21AC028304C
:102AD0003105D9F480912C0290912D02843091051A
:102AE00029F498E29093300286E272C08630910514
:102AF00029F496E29093300287E26AC0099731F593
:102B000090E29093300285E263C043305105F1F4C6
:102B100080912A0290912B02009759F480912C0207
:102B200090912D02039791F498E39093300289E3FA
:102B30004FC0029759F480912C0290912D02892B5D
:102B400031F596E39093300287E342C0453051055A
:102B5000F1F480912A0290912B02009759F4809110
:102B60002C0290912D02039791F49CE290933002F5
:102B70008DE22EC0029759F480912C0290912D0283
:102B80000397D9F59EE1909330028FE121C0473041
:102B9000510599F580912A0290912B02813091057F
:102BA00059F480912C0290912D02049731F590E216
:102BB000909330028CE30CC00297F9F480912C02C0
:102BC00090912D02892BC9F49AE3909330028BE304
:102BD000809331029093210210922202809121026F
:102BE0000E94351280912102909122020E94A70535
:102BF00080E197E220E931E01CC081E060E00E94C2
:102C00008D1380EB91E00E943B1380E29EE420E96B
:102C100031E0F9013197F1F70197D9F781E060E0F0
:102C20000E948D138AEB91E00E943B1386E190E0B5
:102C30007DC0F9013197F1F70197D9F741C0989913
:102C40001EC080E293E0FE013197F1F70197D9F7BA
:102C5000989915C08091310280932102109222022E
:102C60000E94351280912102909122020E94A705B4
:102C700080ED97E0FE013197F1F70197D9F7989928
:102C800021C080E293E0FE013197F1F70197D9F777
:102C9000989918C0809130028093210210922202EC
:102CA0000E94351280912102909122020E94A70574
:102CB00080ED97E0FE013197F1F70197D9F702C057
:102CC000C0E9D1E09999BBCF82E190E00E94A705CD
:102CD000809121029091220280932E0290932F02E4
:102CE000805D80932302809327028FE090E00E9412
:102CF000A705109220020EC0F0E0EE0FFF1FE85D66
:102D0000FD4F808191810E94A705809120028F5FF5
:102D100080932002E0912002E33070F38091210241
:102D2000909122020E94A70584E190E00E94A705ED
:102D3000DF91CF9108951F9310E081E0612F0E94F1
:102D40008D138EE092E00E943B131E3020F080E055
:102D5000612F0E948D138EE092E00E943B131F5F53
:102D6000103159F71F9108951F920F920FB60F92CD
:102D700011242F933F934F935F936F937F938F9380
:102D80009F93AF93BF93EF93FF93809133028F5F35
:102D9000809333028E3708F441C010923302809141
:102DA00032028F5F809332028F3F11F41092320211
:102DB00080913402823051F420913202822F63E0FC
:102DC0000E948418992311F42111DF988091340214
:102DD000823021F520913202822F90E08370907032
:102DE000892BE1F42223D1F0DF9A81E060E00E9498
:102DF0008D138EEE91E00E943B1380913502882363
:102E000041F481E06EE00E948D1385EC91E00E9418
:102E10003B1381E0809334021092350283E884BD35
:102E2000FF91EF91BF91AF919F918F917F916F91A2
:102E30005F914F913F912F910F900FBE0F901F9078
:102E400018956F927F928F929F92AF92BF92CF927E
:102E5000DF92EF92FF920F931F93DF93CF93CDB743
:102E6000DEB727970FB6F894DEBF0FBECDBF9FEF3A
:102E70009ABB80E88BBB80EE87BB80EF88BB8CEF72
:102E800084BB95BB80E381BB0E94820060E07BE451
:102E900080E090E00E9489110E94991385B58F60AF
:102EA00085BD89B7806489BF89EF84BD7894DF9838
:102EB0000E9495130E94FD118AE090E00E94A705F0
:102EC0000E94951380E060E00E948D1388EC91E0F1
:102ED0000E943B138BE090E00E94A7050E945614CD
:102EE000DF9AFE01339685E0DF011D928A95E9F7AE
:102EF00090E09F010AC0E92FF0E0D901AE0FBF1F9B
:102F0000EC5DFD4F80818C939F5F9430A0F3909394
:102F1000200280E06AE00E948D1384E292E00E9429
:102F20003B138DE00AC080E00E948D138EE092E09A
:102F30000E943B13809120028F5F8093200260915A
:102F40002002603180F34E010894811C911CE3E063
:102F5000AE2EB12CAC0EBD1E6624639472E0772EAB
:102F600060E4C62E6CE9D62E50E9E52E51E0F52E30
:102F70000E949B1680913402823019F488E50E94E9
:102F8000B01181E090E061E070E00E94B2188983A6
:102F90009A83C4010E94C51109811A81C80163EE98
:102FA00071E00E94B11A009769F081E060E00E9430
:102FB0008D138EEF91E00E943B13709234021092B9
:102FC000320274C080913402823009F06FC0C801AF
:102FD000B5010E94B11A009709F44EC081E060E08B
:102FE0000E948D138EEE91E00E943B1381E06EE013
:102FF0000E948D1382ED91E00E943B1381E080934B
:103000003502DF9880E190E00E94A705109220022F
:103010000EC0F0E0EE0FFF1FE85DFD4F8081918153
:103020000E94A705809120028F5F80932002E0918B
:103030002002E33070F380912102909122020E94DD
:10304000A70581E190E00E94A70580E090E0279627
:103050000FB6F894DEBF0FBECDBFCF91DF911F91A9
:103060000F91FF90EF90DF90CF90BF90AF909F9027
:103070008F907F906F9008956092350281E060E0BC
:103080000E948D138EEE91E00E943B1381E06EE072
:103090000E948D1385ED91E00E943B130E944A141B
:1030A0001092340285E190E00E94A705C6010197C5
:1030B000F1F789819A810E947B1988E893E1F701F1
:1030C0003197F1F70197D9F753CF629FD001739FE2
:1030D000F001829FE00DF11D649FE00DF11D929FB4
:1030E000F00D839FF00D749FF00D659FF00D9927F3
:1030F000729FB00DE11DF91F639FB00DE11DF91F17
:10310000BD01CF0111240895991B79E004C0991FD6
:10311000961708F0961B881F7A95C9F78095089531
:10312000A1E21A2EAA1BBB1BFD010DC0AA1FBB1FCB
:10313000EE1FFF1FA217B307E407F50720F0A21B3D
:10314000B30BE40BF50B661F771F881F991F1A94AA
:1031500069F760957095809590959B01AC01BD01D4
:10316000CF0108950F931F93CF93DF93689F800142
:10317000699F100D789F100D1124C8010E94CE1870
:10318000EC01009729F060E070E0A8010E94AA1A03
:10319000CE01DF91CF911F910F910895CF93DF93CF
:1031A000BC018230910510F462E070E0A0919506B8
:1031B000B0919606ED01E0E0F0E040E050E021C083
:1031C000888199818617970769F48A819B81309756
:1031D00019F09383828304C090939606809395069A
:1031E000FE0134C06817790738F44115510519F00C
:1031F0008417950708F4AC01FE018A819B819C012C
:10320000E9012097E9F641155105A9F1CA01861B8C
:10321000970B049708F4BA01E0E0F0E02AC08D9122
:103220009C91119784179507F9F46417750781F439
:1032300012968D919C911397309719F09383828306
:1032400004C09093960680939506FD0132964FC078
:10325000CA01861B970BFD01E80FF91F619371935B
:1032600002978D939C9343C0FD01828193819C01C1
:10327000D9011097A1F68091930690919406892B1D
:1032800041F48091110290911202909394068093E0
:10329000930640911302509114024115510541F4D7
:1032A0004DB75EB780910F0290911002481B590BE9
:1032B000209193063091940624173507B0F4CA0183
:1032C000821B930B8617970780F0AB014E5F5F4F11
:1032D0008417950750F0420F531F50939406409364
:1032E0009306F9016193719302C0E0E0F0E0CF0131
:1032F000DF91CF910895CF93DF93009709F450C0E9
:10330000EC0122971B821A82A0919506B091960635
:10331000109709F140E050E0AC17BD0708F1BB83FE
:10332000AA83FE0121913191E20FF31FAE17BF076F
:1033300079F48D919C911197280F391F2E5F3F4F83
:103340003983288312968D919C9113979B838A834E
:103350004115510571F4D0939606C093950620C08F
:1033600012968D919C911397AD01009711F0DC019D
:10337000D3CFFA01D383C28321913191E20FF31F9E
:10338000CE17DF0769F488819981280F391F2E5FD6
:103390003F4FFA01318320838A819B81938382830B
:1033A000DF91CF910895A0E0B0E0E9EDF9E10C9450
:1033B000521B8C01009729F4CB010E94CE188C017E
:1033C000BAC09EEFE92E9FEFF92EE00EF11E5801D4
:1033D000A60EB71EAE14BF0408F4ABC08EEF882E45
:1033E0008FEF982E8A0C9B1CE70148815981461764
:1033F0005707B8F04530510508F49DC0CA0104973D
:103400008617970708F497C042505040461B570B49
:10341000F4015183408379836883C5010E947B193D
:103420008AC06B01C41AD50AE0919506F091960600
:10343000A0E0B0E0C0E0D0E042C0E815F905A1F599
:10344000208131812C153D0578F1C90102968C153A
:103450009D05A8F04E5F5F4F420F531FE701598350
:10346000488322813381109729F013963C932E9341
:10347000129761C030939606209395065CC0225047
:1034800030402C193D0931832083109729F0139681
:10349000FC93EE93129704C0F0939606E093950682
:1034A000F7017183608347C080819181C817D90774
:1034B00008F4EC01DF01828193819C01F9013097CE
:1034C00009F0BBCF400F511F809193069091940655
:1034D00084179507E9F4C617D707D0F42091130293
:1034E000309114022115310541F42DB73EB780917A
:1034F0000F0290911002281B390BA216B306C8F4D4
:10350000B0929406A0929306E7017983688313C072
:10351000CB010E94CE18EC01009759F0F7014081D1
:103520005181B8010E94A11AC8010E947B198E0125
:1035300002C000E010E0C801CDB7DEB7ECE00C94AB
:103540006E1BFB01DC0102C001900D924150504006
:10355000D8F70895DC0101C06D9341505040E0F769
:103560000895FB0151915523A9F0BF01DC014D9154
:1035700045174111E1F759F4CD010190002049F0C0
:103580004D9140154111C9F3FB014111EFCF81E08D
:1035900090E001970895FB019F01E8944230C4F048
:1035A0004532B4F44A3029F497FB1EF49095819586
:1035B0009F4F642F77270E94381B805D8A330CF061
:1035C000895D8193CB010097A1F716F45DE25193D9
:1035D0001082C9010C94281BFA01CF93FF93EF933B
:1035E000223044F1253234F5C22FE894CA3049F430
:1035F00097FB3EF490958095709561957F4F8F4F26
:103600009F4F2C2F332744275527FF93EF930E947A
:103610009018EF91FF91605D6A330CF0695D6193E2
:10362000B901CA01605070408040904051F716F4D3
:10363000CDE2C19310828F919F91CF910C94281B62
:10364000E199FECF9FBB8EBBE09A99278DB3089579
:10365000DC01FC01672F71917723E1F7329704C0F9
:103660007C916D9370836291AE17BF07C8F3089584
:10367000AA1BBB1B51E107C0AA1FBB1FA617B70798
:1036800010F0A61BB70B881F991F5A95A9F78095B4
:103690009095BC01CD0108952F923F924F925F9279
:1036A0006F927F928F929F92AF92BF92CF92DF9252
:1036B000EF92FF920F931F93CF93DF93CDB7DEB7B7
:1036C000CA1BDB0B0FB6F894DEBF0FBECDBF09944B
:1036D0002A88398848885F846E847D848C849B84A2
:1036E000AA84B984C884DF80EE80FD800C811B81B0
:1036F000AA81B981CE0FD11D0FB6F894DEBF0FBEDF
:0A370000CDBFED010895F894FFCF4E
:10370A00302E77617600312E77617600322E77611E
:10371A007600332E77617600342E77617600352E67
:10372A0077617600362E77617600372E77617600DC
:10373A00382E77617600392E7761760031302E7710
:10374A0061760031312E7761760031322E776176DB
:10375A000031332E7761760031342E77617600316D
:10376A00352E7761760031362E7761760031372E25
:10377A007761760031382E7761760031392E77619C
:10378A00760032302E7761760032312E77617600FC
:10379A0032322E7761760033302E776176003331FC
:1037AA002E7761760033322E7761760033332E77A7
:1037BA0061760033342E7761760033352E77617661
:1037CA000033362E7761760033372E7761760033F1
:1037DA00382E7761760033392E7761760034302EB1
:1037EA007761760034312E7761760034322E776134
:1037FA00760034332E7761760034342E7761760082
:10380A0034352E7761760034362E77617600343778
:10381A002E7761760034382E7761760034392E7728
:10382A0061760035302E77617600FF0400010307C8
:10383A000F1F3F7F5354415254002E003000310075
:10384A0032003300340035003600370038003900C2
:10385A005A6C79206E756D6572004E61632E205226
:10386A0065736574005858004E49455749444F4D91
:10387A0059003A29003A2800444953434F4E4E45CD
:10388A00435400434F4E4E454354004F4B00444966
:10389A0053434F4E4E454354202020202020434F6F
:1038AA004E4E454354202020202020202020202036
:0638BA000097060000006B
:04000003000023FADC
:00000001FF
