:100000000C945D000C947A000C947A000C947A00A5
:100010000C947A000C947A000C947A000C947A0078
:100020000C947A000C947A000C947A000C947A0068
:100030000C947A000C947A000C947A000C947A0058
:100040000C947A000C947A000C947A000C947A0048
:100050000C947A0059025C025F0262026502680237
:100060006B026E02710274021A031A031A031A0356
:100070001A031A031A031A031A031A031A031A0398
:100080001A031A031A031A031A031A031A031A0388
:1000900077027F0287028F0297029F02A702AE02B9
:1000A000B502BD02C402CC02D402DC02E302EB02C0
:1000B000F302FB0203030A03110311241FBECFE561
:1000C000D8E0DEBFCDBF11E0A0E6B0E0E6E8FFE09B
:1000D00002C005900D92AA3AB107D9F711E0AAEA39
:1000E000B1E001C01D92A13CB107E1F70E94E30617
:1000F0000C94C1070C9400009B01AC0164E0220F3A
:10010000331F441F551F6A95D1F760E074E284EFF6
:1001100090E00E941E07C901DA010197A109B10907
:10012000292F3A2F4B2F55270196A11DB11D20BD18
:10013000815089B988E18AB986E880BD08955F9BBE
:10014000FECF8CB108955D9BFECF8CB90895AC01B4
:100150005D9BFECF8DE08CB980E991E020E931E034
:10016000F9013197F1F70197D9F75D9BFECF8AE04E
:100170008CB980E991E020E931E0F9013197F1F79C
:100180000197D9F7DA0120E040E951E00DC0FA010A
:100190003197F1F70197D9F78C915D9BFECF8CB920
:1001A0002F5F1196243019F080E991E0F0CF5D9B2C
:1001B000FECF8DE08CB980E991E020E931E0F901D2
:1001C0003197F1F70197D9F75D9BFECF8AE08CB9A3
:1001D00008951F93CF93DF930E94E60380E065E0CC
:1001E0000E94DE0380E690E00E948C0380E197E2AB
:1001F00020E931E0F9013197F1F70197D9F710E0E3
:10020000C0E9D1E081E0612F0E94DE0384EF91E03C
:10021000FE013197F1F70197D9F786E690E00E9449
:100220008C031F5F103171F780E197E220E931E024
:10023000F9013197F1F70197D9F70E94E603DF91B1
:10024000CF911F910895FF920F931F93DF93CF9348
:10025000CDB7DEB7C951D1400FB6F894DEBF0FBE9F
:10026000CDBF082FF92E80916A0090916B009A8380
:10027000898380916C0090916D009C838B83809129
:100280006E0090916F009E838D838091700090919D
:10029000710098878F8380917200909173009A8784
:1002A000898780917400909175009C878B878091DD
:1002B0007600909177009E878D878091780090914D
:1002C0007900988B8F8780917A0090917B009A8B30
:1002D000898B80917C0090917D009C8B8B8BDE01C3
:1002E000A951BF4FEEE7F0E081E101900D928150FE
:1002F000E1F7DE01A759BF4FEFE8F0E08DE0019094
:100300000D928150E1F7DE01A754BF4FECE9F0E018
:100310008FE001900D928150E1F7DE01A35ABF4FAB
:10032000EBEAF0E08CE001900D928150E1F7DE0104
:10033000A952BF4FE7EBF0E080E101900D928150B0
:10034000E1F7DE01AE5ABF4FE7ECF0E08BE0019041
:100350000D928150E1F7DE01D496E2EDF0E08AE003
:1003600001900D928150E1F7DE015596ECEDF0E041
:1003700087E001900D928150E1F7DE01AA58BF4F4E
:10038000E3EEF0E08DE001900D928150E1F7DE01A7
:10039000DE96E0EFF0E08AE001900D928150E1F707
:1003A000DE01A356BF4FEAEFF0E08EE001900D9220
:1003B0008150E1F7DE01AD57BF4FE8E0F1E08DE09D
:1003C00001900D928150E1F7DE01A85BBF4FE5E19E
:1003D000F1E08AE001900D928150E1F7DE015C9638
:1003E000EFE1F1E088E001900D928150E1F7DE014C
:1003F000A850BF4FE7E2F1E081E101900D928150FA
:10040000E1F7DE01A057BF4FE8E3F1E08DE0019096
:100410000D928150E1F7DE01A853BF4FE5E4F1E012
:100420008FE001900D928150E1F7DE01A75FBE4F92
:10043000E4E5F1E081E101900D928150E1F7DE0108
:100440009496E5E6F1E088E001900D928150E1F7A5
:10045000DE019C96EDE6F1E088E001900D9281507E
:10046000E1F7DE01A555BF4FE5E7F1E08EE0019031
:100470000D928150E1F710E081E0612F0E94DE03D0
:1004800088E690E00E948C031F5F1031A9F780E09E
:100490006FE00E94DE03E02FFF2DE333F10508F04B
:1004A000C9C0E65DFF4FEE0FFF1F0590F491E02DF0
:1004B0000994CE010196BCC0CE010396B9C0CE010D
:1004C0000596B6C0CE010796B3C0CE010996B0C05E
:1004D000CE010B96ADC0CE010D96AAC0CE010F96EF
:1004E000A7C0CE014196A4C0CE014396A1C081E031
:1004F00060E00E94DE03CE0187599F4F99C081E0E2
:1005000060E00E94DE03CE0189519F4F91C081E0DF
:1005100060E00E94DE03CE0187549F4F89C081E0D6
:1005200060E00E94DE03CE01835A9F4F81C081E0CC
:1005300060E00E94DE03CE0189529F4F79C081E0C6
:1005400060E00E94DE03CE018E5A9F4F71C081E0B1
:1005500060E00E94DE03CE01C4966AC081E060E0E4
:100560000E94DE03CE01459663C081E060E00E94F8
:10057000DE03CE018A589F4F5BC081E060E00E949D
:10058000DE03CE01CE9654C081E060E00E94DE031F
:10059000CE0183569F4F4CC081E060E00E94DE0395
:1005A000CE018D579F4F44C081E060E00E94DE0382
:1005B000CE01885B9F4F3CC081E060E00E94DE037B
:1005C000CE014C9635C081E060E00E94DE03CE0192
:1005D00088509F4F2DC081E060E00E94DE03CE0175
:1005E00080579F4F25C081E060E00E94DE03CE016E
:1005F00088539F4F1DC081E060E00E94DE03CE0162
:10060000875F9E4F15C081E060E00E94DE03CE014F
:1006100084960EC081E060E00E94DE03CE018C96DD
:1006200007C081E060E00E94DE03CE0185559F4F48
:100630000E948C03C75EDE4F0FB6F894DEBF0FBE7C
:10064000CDBFCF91DF911F910F91FF90089580FF53
:1006500002C0DB9A01C0DB9881FF02C0DC9A01C0B6
:10066000DC9882FF02C0DD9A01C0DD9883FF02C0E2
:10067000DE9A0895DE98089589B390E023E0969578
:1006800087952A95E1F78170CC998260CD99846035
:10069000CE99886008951F93D698D598D498D3980A
:1006A000D99ADA9A0E943C03182F1295107FDA9893
:1006B000DA9A0E943C03DA98812B1F910895D8980A
:1006C0000E944B0308951F93182FD69AD59AD49A57
:1006D000D39AD998DA9A82958F700E942703DA9874
:1006E000DA9A812F0E942703DA980E945F0387FD20
:1006F000FCCF1F910895D8980E9463030895D89A5B
:100700000E9463030895982F8058883008F49770EA
:10071000892F0E947F030895CF93DF93EC0102C0DD
:100720000E94830389918823D9F7DF91CF9108959F
:10073000CF93DF93EC0102C00E948303FE01219658
:1007400084918823C9F7DF91CF9108951F93CF93A8
:10075000DF93EB0190E0877090700896880F880F08
:10076000880F0E947B0310E089910E947F031F5F26
:100770001830D1F7DF91CF911F9108950F931F93F8
:10078000CF93DF938B0190E0877090700896880F6D
:10079000880F880F0E947B03C0E0D0E0F801EC0FC7
:1007A000FD1FE4918E2F0E947F032196C830D10552
:1007B000A9F7DF91CF911F910F910895813009F42E
:1007C00080E46058860F0E947B03089581E00E94B8
:1007D0007B0308950F931F93D69AD59AD49AD39AF0
:1007E000D09AD29AD19AD89ADA9AD99A80E69AEE81
:1007F0000197F1F7DA98D898D998DA9A83E00E94AD
:100800002703DA9880E190E40197F1F7DA9A83E020
:100810000E942703DA9800E911E0C8010197F1F777
:10082000DA9A83E00E942703DA98C8010197F1F76A
:10083000DA9A82E00E942703DA98C8010197F1F75B
:1008400088E20E947B0388E00E947B038CE00E9488
:100850007B0386E00E947B030E94E6031F910F91B9
:1008600008950F931F93CF93DF938B0190E08770D0
:1008700090700896880F880F880F0E947B03C0E055
:10088000D0E0C8018C0F9D1F0E9495070E947F0336
:100890002196C830D105A9F7DF91CF911F910F9113
:1008A0000895CF93DF93EC0121960E949507982F2E
:1008B00081508E3F28F4892F0E948303CE01F3CF0D
:1008C000DF91CF910895DF93CF93CDB7DEB76197D6
:1008D0000FB6F894DEBF0FBECDBFAE014F5F5F4FC6
:1008E00020E130E00E9461070E948C0361960FB600
:1008F000F894DEBF0FBECDBFCF91DF910895DF9397
:10090000CF93CDB7DEB761970FB6F894DEBF0FBEB9
:10091000CDBFBE016F5F7F4F4AE050E00E944007AD
:100920000E948C0361960FB6F894DEBF0FBECDBF58
:10093000CF91DF910895CF93DF931092AA01C0E980
:10094000D1E049C080ED97E0FE013197F1F70197C2
:10095000D9F721C00E942301989921C080E293E039
:10096000FE013197F1F70197D9F7989918C02091B6
:10097000AB013091AC012F5F3F4F3093AC0120931E
:10098000AB0180ED97E0FE013197F1F70197D9F7C0
:100990002A30310524F01092AC011092AB01809105
:1009A000AB019091AC019999D5CF2091AA01A22FCA
:1009B000B0E0FD01EE0FFF1FE954FE4F91838083ED
:1009C000C0969093AE018093AD01AD54BE4F8C9311
:1009D0002F5F2093AA018091AA01833008F4B2CF3F
:1009E0004091B7015091B8014115510509F05FC020
:1009F0002091B9013091BA012115310579F4809126
:100A0000BB019091BC010497E1F422E330E0309304
:100A1000B0012093AF0183E390E024C02130310581
:100A200081F48091BB019091BC01019709F03FC016
:100A300028E230E03093B0012093AF018EE290E0E5
:100A400011C02230310599F58091BB019091BC0114
:100A50000097A9F423E230E03093B0012093AF0176
:100A600084E290E09093B2018093B1013093AC01A5
:100A70002093AB0120E137E240E951E049C18530E4
:100A8000910549F420E330E03093B0012093AF01A9
:100A900081E390E0E7CF089709F09BC020E230E0C7
:100AA0003093B0012093AF018FE290E0DBCF413073
:100AB000510509F08EC02091B9013091BA01213061
:100AC000310579F48091BB019091BC010297D9F472
:100AD00024E330E03093B0012093AF0185E390E050
:100AE000C1CF2230310579F48091BB019091BC01D6
:100AF0000297D9F420E230E03093B0012093AF01A7
:100B000081E290E0AFCF2330310579F48091BB01D1
:100B10009091BC01039739F52DE330E03093B0019B
:100B20002093AF018EE390E09DCF25303105D9F4BD
:100B30008091BB019091BC018430910549F42EE174
:100B400030E03093B0012093AF0182E290E08ACF91
:100B50000897A9F42AE230E03093B0012093AF0166
:100B60008BE290E07FCF2730310549F48091BB01C3
:100B70009091BC01029769F529E230E023C028304A
:100B8000310539F58091BB019091BC01843091050C
:100B900049F428E230E03093B0012093AF0186E2BF
:100BA00090E060CF8630910549F426E230E0309342
:100BB000B0012093AF0187E290E054CF099791F5FF
:100BC00020E230E03093B0012093AF0185E290E065
:100BD00049CF4330510531F58091B9019091BA0167
:100BE000009779F48091BB019091BC010397D1F4F7
:100BF00028E330E03093B0012093AF0189E390E027
:100C000031CF029779F48091BB019091BC01892B7F
:100C100091F526E330E03093B0012093AF0187E3F4
:100C200090E020CF4530510531F58091B901909188
:100C3000BA01009779F48091BB019091BC010397B0
:100C4000D1F42CE230E03093B0012093AF018DE27B
:100C500090E008CF029779F48091BB019091BC019C
:100C6000039799F52EE130E03093B0012093AF0166
:100C70008FE190E0F7CE4730510539F58091B90109
:100C80009091BA018130910579F48091BB019091E6
:100C9000BC010497D1F420E230E03093B0012093FE
:100CA000AF018CE390E0DECE029779F48091BB0136
:100CB0009091BC01892B49F42AE330E03093B001D4
:100CC0002093AF018BE390E0CDCE81E060E00E9405
:100CD000DE0383E891E00E948C0380E29EE420E939
:100CE00031E0F9013197F1F70197D9F781E060E040
:100CF0000E94DE0380E991E00E948C0380E29EE482
:100D000020E931E0F9013197F1F70197D9F7B2CE37
:100D1000CA010197F1F721503040D1F78091AB0122
:100D20009091AC010E942301C0E9D1E038C09899AC
:100D30001AC080E293E0FE013197F1F70197D9F7ED
:100D4000989911C08091B1019091B2019093AC013A
:100D50008093AB010E94230180ED97E0FE01319763
:100D6000F1F70197D9F798991AC080E293E0FE0154
:100D70003197F1F70197D9F7989911C08091AF0198
:100D80009091B0019093AC018093AB010E9423013C
:100D900080ED97E0FE013197F1F70197D9F7999926
:100DA000C6CF8091AB019091AC019093BE0180932E
:100DB000BD01C0969093AE018093AD018093B601C2
:100DC000DF91CF910895CF93DF938FEF8ABB83EFAD
:100DD00084BB1BBA83E085BB60E07BE480E090E0ED
:100DE0000E947C000E94EA030E94E9000E94E60340
:100DF00080E060E00E94DE0381EA91E00E948C03C3
:100E00000E949B0480E06DE00E94DE0383EB91E092
:100E10000E948C03C0E9D1E00E949F008093BF0133
:100E20008835D1F788EE93E0FE013197F1F701970D
:100E3000D9F783EB91E00E94A700EECFA1E21A2E32
:100E4000AA1BBB1BFD010DC0AA1FBB1FEE1FFF1F6E
:100E5000A217B307E407F50720F0A21BB30BE40BBE
:100E6000F50B661F771F881F991F1A9469F7609505
:100E70007095809590959B01AC01BD01CF010895BF
:100E8000FB019F01E8944230C4F04532B4F44A308B
:100E900029F497FB1EF4909581959F4F642F772737
:100EA0000E94AD07805D8A330CF0895D8193CB0190
:100EB0000097A1F716F45DE251931082C9010C94DA
:100EC0009D07FA01CF93FF93EF93223044F125322F
:100ED00034F5C22FE894CA3049F497FB3EF490955C
:100EE0008095709561957F4F8F4F9F4F2C2F3327A3
:100EF00044275527FF93EF930E941E07EF91FF9120
:100F0000605D6A330CF0695D6193B901CA0160509C
:100F100070408040904051F716F4CDE2C1931082AA
:100F20008F919F91CF910C949D07E199FECF9FBB2C
:100F30008EBBE09A99278DB30895DC01FC01672FE1
:100F400071917723E1F7329704C07C916D937083A0
:100F50006291AE17BF07C8F30895AA1BBB1B51E1EE
:100F600007C0AA1FBB1FA617B70710F0A61BB70B19
:100F7000881F991F5A95A9F780959095BC01CD01BE
:060F80000895F894FFCF74
:100F86005354415254002E002000300031003200EC
:100F96003300340035003600370038003900504B36
:100FA60050204F6C737A2E2047726F63682E005361
:100FB600746172652042656D6F776F004F732E20E6
:100FC600476F72637A6577736B6100477769617AF9
:100FD600647A6973746100502B5220416C2E204B49
:100FE60072616B6F772E00426F65726E65726F77F6
:100FF6006F005A6572616E2046534F0053616479E3
:10100600626100537A637A65736C69776963650018
:101016004E6F776F64776F7279004D6574726F20CB
:101026004D6C6F63696E7900434820426C7565208C
:1010360043697479004348205265647574610057AA
:1010460069746F6C696E004E61746F6C696E2050C6
:101056006F6C6E6F636E79004B6F6E77696B746F32
:1010660072736B61004D6574726F204D6172796D9C
:101076006F6E740044772E577363682E4B696A6FE0
:1010860077736B6100416E6E6F706F6C0042616EBC
:1010960061636861004C69706B6F772D4D757A6579
:1010A600756D00426C65646E79206E756D657200B3
:1010B6004E616369736E696A205265736574202098
:0A10C600004155544F4255530000FD
:04000003000001D226
:00000001FF
